:100000000EEF00F00000000000EF00F00000000024
:0A0010000000000000000000F3D71C
:10001C00936A949A0F01396B3A6B8A808A928B8A15
:10002C00CB0E0B6EEC0E0C6E840E0D6E0D2EFED7E1
:10003C000C2EFCD70B2EFAD700008A908A828B8A62
:10004C00290E0B6E960E0C6E7F0E0D6E0D2EFED7BE
:10005C000C2EFCD70B2EFAD78A908A928B9ACB0E49
:10006C000B6EEC0E0C6E840E0D6E0D2EFED70C2E40
:0C007C00FCD70B2EFAD70000D0D7FFD71E
:020000040030CA
:0D000100331F3CFFBF81FF0FC00FE00F4019
:00000001FF
